{
  "contractName": "CoDAO",
  "abi": [
    {
      "constant": true,
      "inputs": [
        {
          "name": "_asset",
          "type": "bytes32"
        }
      ],
      "name": "getPrice",
      "outputs": [
        {
          "name": "",
          "type": "uint256"
        }
      ],
      "payable": false,
      "stateMutability": "view",
      "type": "function",
      "signature": "0x31d98b3f"
    },
    {
      "constant": false,
      "inputs": [
        {
          "name": "_asset",
          "type": "bytes32"
        }
      ],
      "name": "fundTaxAccount",
      "outputs": [],
      "payable": true,
      "stateMutability": "payable",
      "type": "function",
      "signature": "0x47e05d4a"
    },
    {
      "constant": false,
      "inputs": [
        {
          "name": "_asset",
          "type": "bytes32"
        }
      ],
      "name": "placeBid",
      "outputs": [],
      "payable": true,
      "stateMutability": "payable",
      "type": "function",
      "signature": "0x497ecfc5"
    },
    {
      "constant": true,
      "inputs": [
        {
          "name": "_asset",
          "type": "bytes32"
        }
      ],
      "name": "getCommunity",
      "outputs": [
        {
          "name": "",
          "type": "address"
        }
      ],
      "payable": false,
      "stateMutability": "view",
      "type": "function",
      "signature": "0x5cee23db"
    },
    {
      "constant": true,
      "inputs": [
        {
          "name": "_asset",
          "type": "bytes32"
        }
      ],
      "name": "getLessee",
      "outputs": [
        {
          "name": "",
          "type": "address"
        }
      ],
      "payable": false,
      "stateMutability": "view",
      "type": "function",
      "signature": "0x83b90c18"
    },
    {
      "constant": true,
      "inputs": [],
      "name": "owner",
      "outputs": [
        {
          "name": "",
          "type": "address"
        }
      ],
      "payable": false,
      "stateMutability": "view",
      "type": "function",
      "signature": "0x8da5cb5b"
    },
    {
      "constant": false,
      "inputs": [
        {
          "name": "community_contract",
          "type": "address"
        },
        {
          "name": "_asset",
          "type": "bytes32"
        },
        {
          "name": "price",
          "type": "uint256"
        }
      ],
      "name": "listAsset",
      "outputs": [],
      "payable": false,
      "stateMutability": "nonpayable",
      "type": "function",
      "signature": "0x919713d9"
    },
    {
      "constant": false,
      "inputs": [
        {
          "name": "_asset",
          "type": "bytes32"
        },
        {
          "name": "_price",
          "type": "uint256"
        }
      ],
      "name": "selfAssess",
      "outputs": [],
      "payable": true,
      "stateMutability": "payable",
      "type": "function",
      "signature": "0xc60f6b8c"
    },
    {
      "constant": true,
      "inputs": [],
      "name": "tax_rate",
      "outputs": [
        {
          "name": "",
          "type": "uint256"
        }
      ],
      "payable": false,
      "stateMutability": "view",
      "type": "function",
      "signature": "0xe98ea4aa"
    },
    {
      "constant": true,
      "inputs": [
        {
          "name": "",
          "type": "bytes32"
        }
      ],
      "name": "asset_registry",
      "outputs": [
        {
          "name": "community_contract",
          "type": "address"
        },
        {
          "name": "lessee",
          "type": "address"
        },
        {
          "name": "price",
          "type": "uint256"
        },
        {
          "name": "taxFund",
          "type": "uint256"
        }
      ],
      "payable": false,
      "stateMutability": "view",
      "type": "function",
      "signature": "0xf0b3a8c6"
    },
    {
      "inputs": [],
      "payable": false,
      "stateMutability": "nonpayable",
      "type": "constructor",
      "signature": "constructor"
    },
    {
      "payable": true,
      "stateMutability": "payable",
      "type": "fallback"
    },
    {
      "constant": false,
      "inputs": [
        {
          "name": "commContractAddr",
          "type": "address"
        }
      ],
      "name": "createCommunity",
      "outputs": [],
      "payable": true,
      "stateMutability": "payable",
      "type": "function",
      "signature": "0x2c603395"
    },
    {
      "constant": false,
      "inputs": [
        {
          "name": "_asset",
          "type": "bytes32"
        },
        {
          "name": "price",
          "type": "uint256"
        },
        {
          "name": "commContractAddr",
          "type": "address"
        }
      ],
      "name": "listCommunityAsset",
      "outputs": [],
      "payable": false,
      "stateMutability": "nonpayable",
      "type": "function",
      "signature": "0xa71b139f"
    },
    {
      "constant": false,
      "inputs": [
        {
          "name": "_asset",
          "type": "bytes32"
        },
        {
          "name": "commContractAddr",
          "type": "address"
        }
      ],
      "name": "foreclose",
      "outputs": [],
      "payable": false,
      "stateMutability": "nonpayable",
      "type": "function",
      "signature": "0x10e01767"
    },
    {
      "constant": false,
      "inputs": [
        {
          "name": "_asset",
          "type": "bytes32"
        },
        {
          "name": "_multiplier",
          "type": "uint256"
        }
      ],
      "name": "collectTax",
      "outputs": [],
      "payable": false,
      "stateMutability": "nonpayable",
      "type": "function",
      "signature": "0x07844bec"
    },
    {
      "constant": true,
      "inputs": [
        {
          "name": "communityOwner",
          "type": "address"
        },
        {
          "name": "commContractAddr",
          "type": "address"
        }
      ],
      "name": "getCommunityRegistry",
      "outputs": [
        {
          "name": "",
          "type": "bool"
        }
      ],
      "payable": false,
      "stateMutability": "view",
      "type": "function",
      "signature": "0x8fef8144"
    }
  ],
  "bytecode": "0x6080604052600760015534801561001557600080fd5b5033600260006101000a81548173ffffffffffffffffffffffffffffffffffffffff021916908373ffffffffffffffffffffffffffffffffffffffff16021790555033600460006101000a81548173ffffffffffffffffffffffffffffffffffffffff021916908373ffffffffffffffffffffffffffffffffffffffff160217905550611280806100a76000396000f3fe6080604052600436106100db576000357c0100000000000000000000000000000000000000000000000000000000900463ffffffff16806307844bec146100dd57806310e01767146101225780632c6033951461017d57806331d98b3f146101c157806347e05d4a14610210578063497ecfc51461023e5780635cee23db1461026c57806383b90c18146102e75780638da5cb5b146103625780638fef8144146103b9578063919713d914610442578063a71b139f146104a7578063c60f6b8c1461050c578063e98ea4aa14610544578063f0b3a8c61461056f575b005b3480156100e957600080fd5b506101206004803603604081101561010057600080fd5b81019080803590602001909291908035906020019092919050505061062b565b005b34801561012e57600080fd5b5061017b6004803603604081101561014557600080fd5b8101908080359060200190929190803573ffffffffffffffffffffffffffffffffffffffff16906020019092919050505061077a565b005b6101bf6004803603602081101561019357600080fd5b81019080803573ffffffffffffffffffffffffffffffffffffffff169060200190929190505050610a7a565b005b3480156101cd57600080fd5b506101fa600480360360208110156101e457600080fd5b8101908080359060200190929190505050610b64565b6040518082815260200191505060405180910390f35b61023c6004803603602081101561022657600080fd5b8101908080359060200190929190505050610b83565b005b61026a6004803603602081101561025457600080fd5b8101908080359060200190929190505050610c81565b005b34801561027857600080fd5b506102a56004803603602081101561028f57600080fd5b8101908080359060200190929190505050610d7e565b604051808273ffffffffffffffffffffffffffffffffffffffff1673ffffffffffffffffffffffffffffffffffffffff16815260200191505060405180910390f35b3480156102f357600080fd5b506103206004803603602081101561030a57600080fd5b8101908080359060200190929190505050610dbd565b604051808273ffffffffffffffffffffffffffffffffffffffff1673ffffffffffffffffffffffffffffffffffffffff16815260200191505060405180910390f35b34801561036e57600080fd5b50610377610dfc565b604051808273ffffffffffffffffffffffffffffffffffffffff1673ffffffffffffffffffffffffffffffffffffffff16815260200191505060405180910390f35b3480156103c557600080fd5b50610428600480360360408110156103dc57600080fd5b81019080803573ffffffffffffffffffffffffffffffffffffffff169060200190929190803573ffffffffffffffffffffffffffffffffffffffff169060200190929190505050610e22565b604051808215151515815260200191505060405180910390f35b34801561044e57600080fd5b506104a56004803603606081101561046557600080fd5b81019080803573ffffffffffffffffffffffffffffffffffffffff1690602001909291908035906020019092919080359060200190929190505050610ecb565b005b3480156104b357600080fd5b5061050a600480360360608110156104ca57600080fd5b810190808035906020019092919080359060200190929190803573ffffffffffffffffffffffffffffffffffffffff169060200190929190505050610fd6565b005b6105426004803603604081101561052257600080fd5b8101908080359060200190929190803590602001909291905050506110e8565b005b34801561055057600080fd5b506105596111de565b6040518082815260200191505060405180910390f35b34801561057b57600080fd5b506105a86004803603602081101561059257600080fd5b81019080803590602001909291905050506111e4565b604051808573ffffffffffffffffffffffffffffffffffffffff1673ffffffffffffffffffffffffffffffffffffffff1681526020018473ffffffffffffffffffffffffffffffffffffffff1673ffffffffffffffffffffffffffffffffffffffff16815260200183815260200182815260200194505050505060405180910390f35b60008161016d60015481151561063d57fe5b04600080868152602001908152602001600020600201540202905060008084815260200190815260200160002060030154811015151561070b576040517f08c379a000000000000000000000000000000000000000000000000000000000815260040180806020018281038252603e8152602001807f4e6f7420656e6f7567682074617865732c20636f6e7369646572206e6f74696681526020017f79696e6720746865206d656d626572206f7220666f7265636c6f73696e67000081525060400191505060405180910390fd5b80600080858152602001908152602001600020600301600082825403925050819055503373ffffffffffffffffffffffffffffffffffffffff166108fc829081150290604051600060405180830381858888f19350505050158015610774573d6000803e3d6000fd5b50505050565b8073ffffffffffffffffffffffffffffffffffffffff16600360003373ffffffffffffffffffffffffffffffffffffffff1673ffffffffffffffffffffffffffffffffffffffff16815260200190815260200160002060009054906101000a900473ffffffffffffffffffffffffffffffffffffffff1673ffffffffffffffffffffffffffffffffffffffff1614151561087c576040517f08c379a000000000000000000000000000000000000000000000000000000000815260040180806020018281038252601d8152602001807f596f7520617265206e6f74206120636f6d6d756e697479206f776e657200000081525060200191505060405180910390fd5b60008083815260200190815260200160002060000160009054906101000a900473ffffffffffffffffffffffffffffffffffffffff1673ffffffffffffffffffffffffffffffffffffffff168173ffffffffffffffffffffffffffffffffffffffff16141515610954576040517f08c379a000000000000000000000000000000000000000000000000000000000815260040180806020018281038252601f8152602001807f596f7520617265206e6f742074686520636f6d6d756e697479206f776e65720081525060200191505060405180910390fd5b600080838152602001908152602001600020600301546000141515610a07576040517f08c379a00000000000000000000000000000000000000000000000000000000081526004018080602001828103825260348152602001807f546865206c6573736565207374696c6c206861732066756e6473206c6566742081526020017f696e20746865697220746178206163636f756e7400000000000000000000000081525060400191505060405180910390fd5b3360008084815260200190815260200160002060010160006101000a81548173ffffffffffffffffffffffffffffffffffffffff021916908373ffffffffffffffffffffffffffffffffffffffff1602179055506000806000848152602001908152602001600020600201819055505050565b600460009054906101000a900473ffffffffffffffffffffffffffffffffffffffff1673ffffffffffffffffffffffffffffffffffffffff166108fc349081150290604051600060405180830381858888f19350505050158015610ae2573d6000803e3d6000fd5b5080600360003373ffffffffffffffffffffffffffffffffffffffff1673ffffffffffffffffffffffffffffffffffffffff16815260200190815260200160002060006101000a81548173ffffffffffffffffffffffffffffffffffffffff021916908373ffffffffffffffffffffffffffffffffffffffff16021790555050565b6000806000838152602001908152602001600020600201549050919050565b60008082815260200190815260200160002060010160009054906101000a900473ffffffffffffffffffffffffffffffffffffffff1673ffffffffffffffffffffffffffffffffffffffff163373ffffffffffffffffffffffffffffffffffffffff16141515610c5b576040517f08c379a000000000000000000000000000000000000000000000000000000000815260040180806020018281038252601e8152602001807f596f7520617265206e6f74207468652063757272656e74206c6573736565000081525060200191505060405180910390fd5b346000808381526020019081526020016000206003016000828254019250508190555050565b6000808281526020019081526020016000206002015434111515610d0d576040517f08c379a00000000000000000000000000000000000000000000000000000000081526004018080602001828103825260128152602001807f536f6d656f6e652042696420486967686572000000000000000000000000000081525060200191505060405180910390fd5b3360008083815260200190815260200160002060010160006101000a81548173ffffffffffffffffffffffffffffffffffffffff021916908373ffffffffffffffffffffffffffffffffffffffff160217905550346000808381526020019081526020016000206002018190555050565b600080600083815260200190815260200160002060000160009054906101000a900473ffffffffffffffffffffffffffffffffffffffff169050919050565b600080600083815260200190815260200160002060010160009054906101000a900473ffffffffffffffffffffffffffffffffffffffff169050919050565b600260009054906101000a900473ffffffffffffffffffffffffffffffffffffffff1681565b60008173ffffffffffffffffffffffffffffffffffffffff16600360008573ffffffffffffffffffffffffffffffffffffffff1673ffffffffffffffffffffffffffffffffffffffff16815260200190815260200160002060009054906101000a900473ffffffffffffffffffffffffffffffffffffffff1673ffffffffffffffffffffffffffffffffffffffff161415610ec05760019050610ec5565b600090505b92915050565b6080604051908101604052808473ffffffffffffffffffffffffffffffffffffffff1681526020013373ffffffffffffffffffffffffffffffffffffffff168152602001828152602001600081525060008084815260200190815260200160002060008201518160000160006101000a81548173ffffffffffffffffffffffffffffffffffffffff021916908373ffffffffffffffffffffffffffffffffffffffff16021790555060208201518160010160006101000a81548173ffffffffffffffffffffffffffffffffffffffff021916908373ffffffffffffffffffffffffffffffffffffffff1602179055506040820151816002015560608201518160030155905050505050565b8073ffffffffffffffffffffffffffffffffffffffff16600360003373ffffffffffffffffffffffffffffffffffffffff1673ffffffffffffffffffffffffffffffffffffffff16815260200190815260200160002060009054906101000a900473ffffffffffffffffffffffffffffffffffffffff1673ffffffffffffffffffffffffffffffffffffffff161415156110d8576040517f08c379a000000000000000000000000000000000000000000000000000000000815260040180806020018281038252601d8152602001807f596f7520617265206e6f74206120636f6d6d756e697479206f776e657200000081525060200191505060405180910390fd5b6110e3818484610ecb565b505050565b60008083815260200190815260200160002060010160009054906101000a900473ffffffffffffffffffffffffffffffffffffffff1673ffffffffffffffffffffffffffffffffffffffff163373ffffffffffffffffffffffffffffffffffffffff161415156111c0576040517f08c379a000000000000000000000000000000000000000000000000000000000815260040180806020018281038252601e8152602001807f596f7520617265206e6f74207468652063757272656e74206c6573736565000081525060200191505060405180910390fd5b80600080848152602001908152602001600020600201819055505050565b60015481565b60006020528060005260406000206000915090508060000160009054906101000a900473ffffffffffffffffffffffffffffffffffffffff16908060010160009054906101000a900473ffffffffffffffffffffffffffffffffffffffff1690806002015490806003015490508456fea165627a7a72305820deec2666d99193805cc63b86786251403f6aa1aac5e7028ea531463cd974c2e70029",
  "source": "pragma solidity >=0.4.21 <0.6.0;\n\nimport \"./Cost.sol\";\n\ncontract CoDAO is Cost{\n\n\tmapping (address => address) community_registry;\n\taddress payable coDAOowner;\n\n\tconstructor() public{\n\t\tcoDAOowner = msg.sender;\n\t}\n  \n  /* Create a Community\n     Costs 1 eth to create a community (subject to change, in the future may be a COST tax of it's own)\n     Community is an address of a contract\n  */ \n  function createCommunity(address commContractAddr) payable public {\n    // add a protective clause around (pending withdraws)\n    coDAOowner.transfer(msg.value);\n    community_registry[msg.sender] = commContractAddr; \n  }\n  \n  /////////////// Methods to help communities manage assets and members ///////////////////\n  function listCommunityAsset(bytes32 _asset,uint price, address payable commContractAddr) public {\n    require (community_registry[msg.sender] == commContractAddr,\"You are not a community owner\");\n    listAsset(commContractAddr,_asset,price);\n\n  }\n\n  // Forclose (if there is no money left for asset attached to lessee), called by community\n  function foreclose (bytes32 _asset, address payable commContractAddr) public {\n    require (community_registry[msg.sender] == commContractAddr,\"You are not a community owner\");\n    require (commContractAddr == asset_registry[_asset].community_contract,\"You are not the community owner\");\n    require (0 == asset_registry[_asset].taxFund,\"The lessee still has funds left in their tax account\");\n   \n    asset_registry[_asset].lessee = msg.sender;\n    asset_registry[_asset].price = 0;\n    \n  }\n\n  // Allows community owner to collect taxes on an asset\n  function collectTax(bytes32 _asset, uint _multiplier) public {\n    // Calc taxes with DAI integration for the price\n    uint collections = asset_registry[_asset].price * (tax_rate / 365) * _multiplier;\n\n    require (collections >= asset_registry[_asset].taxFund,\"Not enough taxes, consider notifying the member or foreclosing\");\n    // Subtracts the funds\n    asset_registry[_asset].taxFund -= collections;\n    // All good to tansfer the funds\n    msg.sender.transfer(collections);    \n  }\n\n  function() external payable {\n\n  }\n\n  function getCommunityRegistry(address communityOwner,address commContractAddr) external view returns(bool){\n    if(community_registry[communityOwner] == commContractAddr){\n      return true;\n    }\n    else{\n      return false;\n    }\n  }  \n}\n",
  "sourcePath": "/home/sam/Projects/c_o_s_t_contract/contracts/CoDAO.sol",
  "compiler": {
    "name": "solc",
    "version": "0.5.0+commit.1d4f565a.Emscripten.clang"
  },
  "schemaVersion": "3.0.2",
  "updatedAt": "2019-05-05T19:14:20.281Z",
  "devdoc": {
    "methods": {}
  },
  "userdoc": {
    "methods": {
      "listCommunityAsset(bytes32,uint256,address)": {
        "notice": "//////////// Methods to help communities manage assets and members ///////////////////"
      }
    }
  }
}