{
  "contractName": "Cost",
  "abi": [
    {
      "constant": true,
      "inputs": [],
      "name": "owner",
      "outputs": [
        {
          "name": "",
          "type": "address"
        }
      ],
      "payable": false,
      "stateMutability": "view",
      "type": "function",
      "signature": "0x8da5cb5b"
    },
    {
      "constant": true,
      "inputs": [],
      "name": "tax_rate",
      "outputs": [
        {
          "name": "",
          "type": "uint256"
        }
      ],
      "payable": false,
      "stateMutability": "view",
      "type": "function",
      "signature": "0xe98ea4aa"
    },
    {
      "constant": true,
      "inputs": [
        {
          "name": "",
          "type": "bytes32"
        }
      ],
      "name": "asset_registry",
      "outputs": [
        {
          "name": "community_contract",
          "type": "address"
        },
        {
          "name": "lessee",
          "type": "address"
        },
        {
          "name": "price",
          "type": "uint256"
        },
        {
          "name": "taxFund",
          "type": "uint256"
        }
      ],
      "payable": false,
      "stateMutability": "view",
      "type": "function",
      "signature": "0xf0b3a8c6"
    },
    {
      "inputs": [],
      "payable": false,
      "stateMutability": "nonpayable",
      "type": "constructor",
      "signature": "constructor"
    },
    {
      "payable": true,
      "stateMutability": "payable",
      "type": "fallback"
    },
    {
      "constant": false,
      "inputs": [
        {
          "name": "community_contract",
          "type": "address"
        },
        {
          "name": "_asset",
          "type": "bytes32"
        },
        {
          "name": "price",
          "type": "uint256"
        }
      ],
      "name": "listAsset",
      "outputs": [],
      "payable": false,
      "stateMutability": "nonpayable",
      "type": "function",
      "signature": "0x919713d9"
    },
    {
      "constant": false,
      "inputs": [
        {
          "name": "_asset",
          "type": "bytes32"
        }
      ],
      "name": "placeBid",
      "outputs": [],
      "payable": true,
      "stateMutability": "payable",
      "type": "function",
      "signature": "0x497ecfc5"
    },
    {
      "constant": false,
      "inputs": [
        {
          "name": "_asset",
          "type": "bytes32"
        },
        {
          "name": "_price",
          "type": "uint256"
        }
      ],
      "name": "selfAssess",
      "outputs": [],
      "payable": true,
      "stateMutability": "payable",
      "type": "function",
      "signature": "0xc60f6b8c"
    },
    {
      "constant": false,
      "inputs": [
        {
          "name": "_asset",
          "type": "bytes32"
        }
      ],
      "name": "fundTaxAccount",
      "outputs": [],
      "payable": true,
      "stateMutability": "payable",
      "type": "function",
      "signature": "0x47e05d4a"
    },
    {
      "constant": true,
      "inputs": [
        {
          "name": "_asset",
          "type": "bytes32"
        }
      ],
      "name": "getCommunity",
      "outputs": [
        {
          "name": "",
          "type": "address"
        }
      ],
      "payable": false,
      "stateMutability": "view",
      "type": "function",
      "signature": "0x5cee23db"
    },
    {
      "constant": true,
      "inputs": [
        {
          "name": "_asset",
          "type": "bytes32"
        }
      ],
      "name": "getLessee",
      "outputs": [
        {
          "name": "",
          "type": "address"
        }
      ],
      "payable": false,
      "stateMutability": "view",
      "type": "function",
      "signature": "0x83b90c18"
    },
    {
      "constant": true,
      "inputs": [
        {
          "name": "_asset",
          "type": "bytes32"
        }
      ],
      "name": "getPrice",
      "outputs": [
        {
          "name": "",
          "type": "uint256"
        }
      ],
      "payable": false,
      "stateMutability": "view",
      "type": "function",
      "signature": "0x31d98b3f"
    },
    {
      "constant": true,
      "inputs": [
        {
          "name": "_asset",
          "type": "bytes32"
        }
      ],
      "name": "getTaxFund",
      "outputs": [
        {
          "name": "",
          "type": "uint256"
        }
      ],
      "payable": false,
      "stateMutability": "view",
      "type": "function",
      "signature": "0x08b1801f"
    }
  ],
  "bytecode": "0x6080604052600760015534801561001557600080fd5b5033600260006101000a81548173ffffffffffffffffffffffffffffffffffffffff021916908373ffffffffffffffffffffffffffffffffffffffff16021790555061091b806100666000396000f3fe6080604052600436106100af576000357c0100000000000000000000000000000000000000000000000000000000900463ffffffff16806308b1801f146100b157806331d98b3f1461010057806347e05d4a1461014f578063497ecfc51461017d5780635cee23db146101ab57806383b90c18146102265780638da5cb5b146102a1578063919713d9146102f8578063c60f6b8c1461035d578063e98ea4aa14610395578063f0b3a8c6146103c0575b005b3480156100bd57600080fd5b506100ea600480360360208110156100d457600080fd5b810190808035906020019092919050505061047c565b6040518082815260200191505060405180910390f35b34801561010c57600080fd5b506101396004803603602081101561012357600080fd5b810190808035906020019092919050505061049b565b6040518082815260200191505060405180910390f35b61017b6004803603602081101561016557600080fd5b81019080803590602001909291905050506104ba565b005b6101a96004803603602081101561019357600080fd5b81019080803590602001909291905050506104d7565b005b3480156101b757600080fd5b506101e4600480360360208110156101ce57600080fd5b81019080803590602001909291905050506105d4565b604051808273ffffffffffffffffffffffffffffffffffffffff1673ffffffffffffffffffffffffffffffffffffffff16815260200191505060405180910390f35b34801561023257600080fd5b5061025f6004803603602081101561024957600080fd5b8101908080359060200190929190505050610613565b604051808273ffffffffffffffffffffffffffffffffffffffff1673ffffffffffffffffffffffffffffffffffffffff16815260200191505060405180910390f35b3480156102ad57600080fd5b506102b6610652565b604051808273ffffffffffffffffffffffffffffffffffffffff1673ffffffffffffffffffffffffffffffffffffffff16815260200191505060405180910390f35b34801561030457600080fd5b5061035b6004803603606081101561031b57600080fd5b81019080803573ffffffffffffffffffffffffffffffffffffffff1690602001909291908035906020019092919080359060200190929190505050610678565b005b6103936004803603604081101561037357600080fd5b810190808035906020019092919080359060200190929190505050610783565b005b3480156103a157600080fd5b506103aa610879565b6040518082815260200191505060405180910390f35b3480156103cc57600080fd5b506103f9600480360360208110156103e357600080fd5b810190808035906020019092919050505061087f565b604051808573ffffffffffffffffffffffffffffffffffffffff1673ffffffffffffffffffffffffffffffffffffffff1681526020018473ffffffffffffffffffffffffffffffffffffffff1673ffffffffffffffffffffffffffffffffffffffff16815260200183815260200182815260200194505050505060405180910390f35b6000806000838152602001908152602001600020600301549050919050565b6000806000838152602001908152602001600020600201549050919050565b346000808381526020019081526020016000206003018190555050565b6000808281526020019081526020016000206002015434111515610563576040517f08c379a00000000000000000000000000000000000000000000000000000000081526004018080602001828103825260128152602001807f536f6d656f6e652042696420486967686572000000000000000000000000000081525060200191505060405180910390fd5b3360008083815260200190815260200160002060010160006101000a81548173ffffffffffffffffffffffffffffffffffffffff021916908373ffffffffffffffffffffffffffffffffffffffff160217905550346000808381526020019081526020016000206002018190555050565b600080600083815260200190815260200160002060000160009054906101000a900473ffffffffffffffffffffffffffffffffffffffff169050919050565b600080600083815260200190815260200160002060010160009054906101000a900473ffffffffffffffffffffffffffffffffffffffff169050919050565b600260009054906101000a900473ffffffffffffffffffffffffffffffffffffffff1681565b6080604051908101604052808473ffffffffffffffffffffffffffffffffffffffff1681526020013373ffffffffffffffffffffffffffffffffffffffff168152602001828152602001600081525060008084815260200190815260200160002060008201518160000160006101000a81548173ffffffffffffffffffffffffffffffffffffffff021916908373ffffffffffffffffffffffffffffffffffffffff16021790555060208201518160010160006101000a81548173ffffffffffffffffffffffffffffffffffffffff021916908373ffffffffffffffffffffffffffffffffffffffff1602179055506040820151816002015560608201518160030155905050505050565b60008083815260200190815260200160002060010160009054906101000a900473ffffffffffffffffffffffffffffffffffffffff1673ffffffffffffffffffffffffffffffffffffffff163373ffffffffffffffffffffffffffffffffffffffff1614151561085b576040517f08c379a000000000000000000000000000000000000000000000000000000000815260040180806020018281038252601e8152602001807f596f7520617265206e6f74207468652063757272656e74206c6573736565000081525060200191505060405180910390fd5b80600080848152602001908152602001600020600201819055505050565b60015481565b60006020528060005260406000206000915090508060000160009054906101000a900473ffffffffffffffffffffffffffffffffffffffff16908060010160009054906101000a900473ffffffffffffffffffffffffffffffffffffffff1690806002015490806003015490508456fea165627a7a72305820b5299de338c52a606d2d7b6d6788f37a9a6bfd42b02c47b518d769c84ffc2e4b0029",
  "source": "pragma solidity >=0.4.21 <0.6.0;\n\ncontract Cost {\n  struct asset {\n    address payable community_contract; // Address of the Community\n    address lessee; // Current Highest Bidder\n    uint price; // Current Price of the Asset\n    uint taxFund; // Tax amount the member has paid\n  }\n\n  // Map of lessees to assets\n  mapping (bytes32 => asset) public asset_registry;\n\n  // Tax as a Percentage\n  uint public tax_rate = 7;\n\n  // Contract owner\n  address public owner;\n\n  constructor() public {\n    owner = msg.sender; \n  }\n  // Allow anyone to list an asset that contributes to a common DAO\n  function listAsset(address payable community_contract, bytes32 _asset,uint price) public {\n    asset_registry[_asset] = asset(community_contract,msg.sender,price,0);\n  }\n\n  // Anyone can place a bid\n  function placeBid(bytes32 _asset) public payable {\n    // Convert to modifier\n    require(msg.value > asset_registry[_asset].price, \"Someone Bid Higher\");\n    // TODO: [2]\n    asset_registry[_asset].lessee = msg.sender;\n    asset_registry[_asset].price = msg.value;\n  }\n\n  // Allows the lessee to reassess the price of the asset\n  function selfAssess(bytes32 _asset, uint _price) payable public{\n  \t// Allows current lessee of asset to self assess\n  \trequire (msg.sender == asset_registry[_asset].lessee,\"You are not the current lessee\");\n    asset_registry[_asset].price = _price;\n  }\n  // Allows the lessee to fund their tax owed\n  function fundTaxAccount(bytes32 _asset) payable public{\n    // Allows current lessee of asset to self assess\n    //require (msg.sender == asset_registry[_asset].lessee,\"You are not the current lessee\");\n    asset_registry[_asset].taxFund = msg.value;\n  }\n  \n\n  function() external payable {\n\n  }\n  function getCommunity(bytes32 _asset) external view returns(address){\n    return asset_registry[_asset].community_contract; \n  }\n  function getLessee(bytes32 _asset) external view returns(address){\n    return asset_registry[_asset].lessee; \n  }\n  function getPrice(bytes32 _asset) external view returns(uint){\n    return asset_registry[_asset].price; \n  }\n  function getTaxFund(bytes32 _asset) external view returns(uint){\n    return asset_registry[_asset].taxFund; \n  }\n}\n  ",
  "sourcePath": "/home/sam/Projects/coDAO_repo/coDAO/contracts/Cost.sol",
  "compiler": {
    "name": "solc",
    "version": "0.5.0+commit.1d4f565a.Emscripten.clang"
  },
  "schemaVersion": "3.0.6",
  "updatedAt": "2019-05-17T21:58:52.406Z",
  "devdoc": {
    "methods": {}
  },
  "userdoc": {
    "methods": {}
  }
}