{
  "contractName": "Cost",
  "abi": [
    {
      "constant": true,
      "inputs": [],
      "name": "owner",
      "outputs": [
        {
          "name": "",
          "type": "address"
        }
      ],
      "payable": false,
      "stateMutability": "view",
      "type": "function"
    },
    {
      "constant": true,
      "inputs": [],
      "name": "tax_rate",
      "outputs": [
        {
          "name": "",
          "type": "uint256"
        }
      ],
      "payable": false,
      "stateMutability": "view",
      "type": "function"
    },
    {
      "constant": true,
      "inputs": [
        {
          "name": "",
          "type": "bytes32"
        }
      ],
      "name": "asset_registry",
      "outputs": [
        {
          "name": "co_dao",
          "type": "address"
        },
        {
          "name": "lessee",
          "type": "address"
        },
        {
          "name": "price",
          "type": "uint256"
        }
      ],
      "payable": false,
      "stateMutability": "view",
      "type": "function"
    },
    {
      "inputs": [],
      "payable": false,
      "stateMutability": "nonpayable",
      "type": "constructor"
    },
    {
      "payable": true,
      "stateMutability": "payable",
      "type": "fallback"
    },
    {
      "constant": false,
      "inputs": [
        {
          "name": "co_dao",
          "type": "address"
        },
        {
          "name": "_asset",
          "type": "bytes32"
        },
        {
          "name": "price",
          "type": "uint256"
        }
      ],
      "name": "listAsset",
      "outputs": [],
      "payable": false,
      "stateMutability": "nonpayable",
      "type": "function"
    },
    {
      "constant": false,
      "inputs": [
        {
          "name": "_asset",
          "type": "bytes32"
        }
      ],
      "name": "placeBid",
      "outputs": [],
      "payable": true,
      "stateMutability": "payable",
      "type": "function"
    },
    {
      "constant": false,
      "inputs": [
        {
          "name": "_asset",
          "type": "bytes32"
        }
      ],
      "name": "selfAssess",
      "outputs": [],
      "payable": true,
      "stateMutability": "payable",
      "type": "function"
    },
    {
      "constant": true,
      "inputs": [
        {
          "name": "_asset",
          "type": "bytes32"
        }
      ],
      "name": "getCommonDAO",
      "outputs": [
        {
          "name": "",
          "type": "address"
        }
      ],
      "payable": false,
      "stateMutability": "view",
      "type": "function"
    },
    {
      "constant": true,
      "inputs": [
        {
          "name": "_asset",
          "type": "bytes32"
        }
      ],
      "name": "getlessee",
      "outputs": [
        {
          "name": "",
          "type": "address"
        }
      ],
      "payable": false,
      "stateMutability": "view",
      "type": "function"
    },
    {
      "constant": true,
      "inputs": [
        {
          "name": "_asset",
          "type": "bytes32"
        }
      ],
      "name": "getPrice",
      "outputs": [
        {
          "name": "",
          "type": "uint256"
        }
      ],
      "payable": false,
      "stateMutability": "view",
      "type": "function"
    }
  ],
  "bytecode": "0x6080604052600760015534801561001557600080fd5b5033600260006101000a81548173ffffffffffffffffffffffffffffffffffffffff021916908373ffffffffffffffffffffffffffffffffffffffff160217905550610823806100666000396000f3fe608060405260043610610099576000357c0100000000000000000000000000000000000000000000000000000000900463ffffffff16806331d98b3f1461009b5780633fff94c0146100ea578063497ecfc51461016557806381e3d24d146101935780638da5cb5b1461020e578063919713d91461026557806394ea7e5c146102ca578063e98ea4aa146102f8578063f0b3a8c614610323575b005b3480156100a757600080fd5b506100d4600480360360208110156100be57600080fd5b81019080803590602001909291905050506103d8565b6040518082815260200191505060405180910390f35b3480156100f657600080fd5b506101236004803603602081101561010d57600080fd5b81019080803590602001909291905050506103f7565b604051808273ffffffffffffffffffffffffffffffffffffffff1673ffffffffffffffffffffffffffffffffffffffff16815260200191505060405180910390f35b6101916004803603602081101561017b57600080fd5b8101908080359060200190929190505050610436565b005b34801561019f57600080fd5b506101cc600480360360208110156101b657600080fd5b8101908080359060200190929190505050610533565b604051808273ffffffffffffffffffffffffffffffffffffffff1673ffffffffffffffffffffffffffffffffffffffff16815260200191505060405180910390f35b34801561021a57600080fd5b50610223610572565b604051808273ffffffffffffffffffffffffffffffffffffffff1673ffffffffffffffffffffffffffffffffffffffff16815260200191505060405180910390f35b34801561027157600080fd5b506102c86004803603606081101561028857600080fd5b81019080803573ffffffffffffffffffffffffffffffffffffffff1690602001909291908035906020019092919080359060200190929190505050610598565b005b6102f6600480360360208110156102e057600080fd5b8101908080359060200190929190505050610692565b005b34801561030457600080fd5b5061030d610787565b6040518082815260200191505060405180910390f35b34801561032f57600080fd5b5061035c6004803603602081101561034657600080fd5b810190808035906020019092919050505061078d565b604051808473ffffffffffffffffffffffffffffffffffffffff1673ffffffffffffffffffffffffffffffffffffffff1681526020018373ffffffffffffffffffffffffffffffffffffffff1673ffffffffffffffffffffffffffffffffffffffff168152602001828152602001935050505060405180910390f35b6000806000838152602001908152602001600020600201549050919050565b600080600083815260200190815260200160002060010160009054906101000a900473ffffffffffffffffffffffffffffffffffffffff169050919050565b60008082815260200190815260200160002060020154341115156104c2576040517f08c379a00000000000000000000000000000000000000000000000000000000081526004018080602001828103825260128152602001807f536f6d656f6e652042696420486967686572000000000000000000000000000081525060200191505060405180910390fd5b3360008083815260200190815260200160002060010160006101000a81548173ffffffffffffffffffffffffffffffffffffffff021916908373ffffffffffffffffffffffffffffffffffffffff160217905550346000808381526020019081526020016000206002018190555050565b600080600083815260200190815260200160002060000160009054906101000a900473ffffffffffffffffffffffffffffffffffffffff169050919050565b600260009054906101000a900473ffffffffffffffffffffffffffffffffffffffff1681565b6060604051908101604052808473ffffffffffffffffffffffffffffffffffffffff1681526020013373ffffffffffffffffffffffffffffffffffffffff1681526020018281525060008084815260200190815260200160002060008201518160000160006101000a81548173ffffffffffffffffffffffffffffffffffffffff021916908373ffffffffffffffffffffffffffffffffffffffff16021790555060208201518160010160006101000a81548173ffffffffffffffffffffffffffffffffffffffff021916908373ffffffffffffffffffffffffffffffffffffffff16021790555060408201518160020155905050505050565b60008082815260200190815260200160002060010160009054906101000a900473ffffffffffffffffffffffffffffffffffffffff1673ffffffffffffffffffffffffffffffffffffffff163373ffffffffffffffffffffffffffffffffffffffff1614151561076a576040517f08c379a000000000000000000000000000000000000000000000000000000000815260040180806020018281038252601e8152602001807f596f7520617265206e6f74207468652063757272656e74206c6573736565000081525060200191505060405180910390fd5b346000808381526020019081526020016000206002018190555050565b60015481565b60006020528060005260406000206000915090508060000160009054906101000a900473ffffffffffffffffffffffffffffffffffffffff16908060010160009054906101000a900473ffffffffffffffffffffffffffffffffffffffff1690806002015490508356fea165627a7a723058200b28bfbd1215e5820450243e3a8cbff532fa4dd4242059d6c70a3a7ace76c7f40029",
  "source": "pragma solidity >=0.4.21 <0.6.0;\n\ncontract Cost {\n  struct asset {\n    address payable co_dao;\n    address lessee; // Current Highest Bidder\n    uint price; // Current Price of the Asset\n  }\n\n  // Map of lessees to assets\n  mapping (bytes32 => asset) public asset_registry;\n\n  // Tax as a Percentage\n  uint public tax_rate = 7;\n\n  // Contract owner\n  address public owner;\n\n  constructor() public {\n    owner = msg.sender;\n  }\n  // Allow anyone to list an asset that contributes to a common DAO\n  function listAsset (address payable co_dao, bytes32 _asset,uint price) public {\n\n    asset_registry[_asset] = asset(co_dao,msg.sender,price);\n  }\n\n  // Anyone can place a bid\n  function placeBid(bytes32 _asset) public payable {\n    // Convert to modifier\n    require(msg.value > asset_registry[_asset].price, \"Someone Bid Higher\");\n    //TODO: Return money to sender ?\n    asset_registry[_asset].lessee = msg.sender;\n    asset_registry[_asset].price = msg.value;\n  }\n\n  // Allows the lessee to reassess the price of the asset\n  function selfAssess(bytes32 _asset) payable public{\n  \t// Allows current lessee of asset to self assess\n  \trequire (msg.sender == asset_registry[_asset].lessee,\"You are not the current lessee\");\n    asset_registry[_asset].price = msg.value;\n  }\n\n  \n\n  function() external payable {\n\n  }\n  function getCommonDAO(bytes32 _asset) view public returns(address){\n    return asset_registry[_asset].co_dao; \n  }\n  function getlessee(bytes32 _asset) view public returns(address){\n    return asset_registry[_asset].lessee; \n  }\n  function getPrice(bytes32 _asset) view public returns(uint){\n    return asset_registry[_asset].price; \n  }\n}\n  ",
  "sourcePath": "/home/sam/Projects/c_o_s_t_contract/contracts/Cost.sol",
  "compiler": {
    "name": "solc",
    "version": "0.5.0+commit.1d4f565a.Emscripten.clang"
  },
  "schemaVersion": "3.0.2",
  "updatedAt": "2019-03-18T22:51:50.866Z",
  "devdoc": {
    "methods": {}
  },
  "userdoc": {
    "methods": {}
  }
}